:020000040800F2
:10000000805800206902000815610008095700089F
:10001000E55E0008C5060008C17300080000000086
:100020000000000000000000000000004162000825
:100030005116000800000000B1610008F1620008DC
:10004000830200088302000883020008830200087C
:10005000830200088302000883020008830200086C
:10006000830200088302000883020008AD0B000829
:10007000BD0B0008CD0B0008DD0B0008ED0B0008E0
:10008000FD0B0008830200088302000883020008B9
:100090002507000883020008830200088302000885
:1000A000830200088302000883020008830200081C
:1000B0000564000883020008830200088302000828
:1000C00083020008830200088302000883020008FC
:1000D0008302000825710008B171000859720008F8
:1000E00083020008830200088302000883020008DC
:1000F0008302000883020008830200080D0C000838
:1001000083020008830200088302000883020008BB
:100110005D6A0008796A000883020008830200080B
:10012000830200081D0C00082D0C00088302000843
:10013000830200088302000883020008830200088B
:100140009107000883020008830200088302000868
:10015000830200083D0C00084D0C000845730008A0
:10016000830200088302000883020008830200085B
:1001700083020008830200088302000800000000D8
:10018000830200088302000800F002F800F05CF827
:100190000AA090E8000C82448344AAF10107DA45E2
:1001A00001D100F051F8AFF2090EBAE80F0013F0D8
:1001B000010F18BFFB1A43F001031847E8AF000016
:1001C00008B000000A444FF0000C10F8013B13F097
:1001D000070408BF10F8014B1D1108BF10F8015BA0
:1001E000641E05D010F8016B641E01F8016BF9D193
:1001F00013F0080F1EBF10F8014BAD1C0C1B09D1EA
:100200006D1E58BF01F801CBFAD505E014F8016B5B
:1002100001F8016B6D1EF9D59142D6D370470000ED
:100220000023002400250026103A28BF78C1FBD8FF
:10023000520728BF30C148BF0B6070471FB50AF096
:10024000BDFD1FBD10B510BD00F08CF91146FFF7C4
:10025000F5FF08F01DF900F0AAF903B4FFF7F2FF6B
:1002600003BC00F0ADF90000094880470948004789
:10027000FEE7FEE7FEE7FEE7FEE7FEE7FEE7FEE756
:10028000FEE7FEE704480549054A064B70470000B3
:10029000F163000889010008805200208058002086
:1002A000805400208054002053EA020C00F0698042
:1002B0002DE9F04B4FF00006002B1FBFB3FA83F57A
:1002C00003FA05F424FA05F65E4012BF1643B2FAAB
:1002D00082F502FA05F4C5F120051EBF22FA05FCDD
:1002E00044EA0C04203556EA044C4FEA144418BF83
:1002F000641C4FF000084FF00009904271EB030CB2
:1003000039D3002919BFB1FA81F701FA07F6B0FA1B
:1003100080F700FA07F6C7F120071EBF20FA07FC96
:1003200046EA0C062037B6FBF4FCA7EB0507103FA6
:1003300007F01F0BCBF120062CFA06F60CFA0BFB8C
:1003400044BFB3460026202FA4BF5E464FF0000BEB
:100350005BEA060C08BF4FF0010B19EB0B0948EBE9
:100360000608ABFB027C06FB02CC0BFB03CCC01BDC
:1003700071EB0C01C1E70B46024641464846BDE819
:10038000F08B13B5084318BF4FF0FF300146AFF3B1
:100390000080BDE81C40704710B5431C02E010F817
:1003A000011B71B18107FAD14FF0013202C88C1ADA
:1003B0008C4314EAC211F9D0C01A0A0603D0C01E39
:1003C00010BDC01A10BD0A0401D0801E10BD090264
:1003D000FCD0401E10BD032A40F2308010F0030C08
:1003E00000F0158011F8013BBCF1020F624498BF88
:1003F00011F801CB00F8013B38BF11F8013BA2F125
:10040000040298BF00F801CB38BF00F8013B11F09F
:10041000030300F02580083AC0F0088051F8043B3F
:10042000083A51F804CBA0E80810F5E7121D5CBFAC
:1004300051F8043B40F8043BAFF30080D20724BFDF
:1004400011F8013B11F801CB48BF11F8012B24BF73
:1004500000F8013B00F801CB48BF00F8012B7047C2
:1004600010B5203AC0F00B80B1E81850A0E8185041
:10047000B1E81850A0E81850203ABFF4F5AF5FEA91
:10048000027C24BFB1E81850A0E8185044BF18C936
:1004900018C0BDE810405FEA827C24BF51F8043BDD
:1004A00040F8043B08BF7047D20728BF31F8023B31
:1004B00048BF11F8012B28BF20F8023B48BF00F8C5
:1004C000012B70474FF000020429C0F0128010F099
:1004D000030C00F01B80CCF1040CBCF1020F18BF20
:1004E00000F8012BA8BF20F8022BA1EB0C0100F0B3
:1004F0000DB85FEAC17C24BF00F8012B00F8012B86
:1005000048BF00F8012B70474FF0000200B51346BA
:1005100094469646203922BFA0E80C50A0E80C5023
:10052000B1F12001BFF4F7AF090728BFA0E80C50D4
:1005300048BF0CC05DF804EB890028BF40F8042BCD
:1005400008BF704748BF20F8022B11F0804F18BF3A
:1005500000F8012B7047704770477047004870479C
:10056000B80400207546FFF7F9FFAE46050069465E
:10057000534620F00700854618B020B5FFF782FEED
:10058000BDE820404FF000064FF000074FF0000894
:100590004FF0000BAC46ACE8C009ACE8C009ACE8D1
:1005A000C009ACE8C00921F007018D46704710B5BD
:1005B0000446AFF300802046BDE81040FFF74DBE73
:1005C00001491820ABBEFEE726000200704700007C
:1005D00080B584B0039002910020ADF80600039826
:1005E00020B1FFE70298022801D8FFE71AE003983C
:1005F0000299023940F20002C2F20002128801F0B0
:1006000093F9ADF80600BDF80600039A029911446B
:1006100001F8020C9DF80700039A0299114401F8B1
:10062000010CFFE704B080BD80B582B00190ADF849
:10063000021000208DF80100019828B1FFE7BDF8F5
:100640000200022801DCFFE712E00198BDF8021069
:10065000013989B2FF2201F09BF98DF801009DF864
:100660000100019ABDF80210114401F8010CFFE7E6
:1006700002B080BD81B0ADF80200BDF8020000EB11
:100680008000ADF80200BDF90200B0F5FA7F05DD8B
:10069000FFE74FF4FA70ADF802000AE0BDF902007E
:1006A000B0F1FF3F04DCFFE70020ADF80200FFE7F8
:1006B000FFE7BDF9020044F63401C4F2010108600D
:1006C00001B07047FFE7FEE780B58CB002A800904C
:1006D00000F066F8009940F2D450C2F20000019098
:1006E00001F05EFA0198022101F078F9019802F018
:1006F0001DF80CB080BD000080B584B0039002915D
:1007000040F27010C2F200000190D0F8F432029969
:100710000822984701990398C861002081F82400B5
:1007200004B080BD80B540F2D450C2F2000001F0A8
:1007300005FC80BD80B58CB002A8009000F030F8B8
:10074000009940F22060C2F20000019001F028FA06
:100750000198022101F042F9019801F0E7FF0CB085
:1007600080BD000080B584B00390029140F270100B
:10077000C2F200000190D0F8F432029908229847A2
:1007800001990398C861012081F8240004B080BD5C
:1007900080B540F22060C2F2000001F0CFFB80BDC6
:1007A00081B000900099002008600099486000998D
:1007B00088600099C86000990861009948610099B3
:1007C0008861009A0121D161009A11620099486202
:1007D00001B0704782B0019001980178407840EAFA
:1007E0000120ADF80200BDF8020002B07047000021
:1007F00082B0019001980179407940EA0120ADF87A
:100800000200BDF9020002B07047000082B0019002
:1008100001988178C07840EA0120ADF80200BDF966
:10082000020002B07047000082B001900198807908
:100830008DF803009DF8030002B0704782B001906C
:1008400001980179407940EA0120ADF80200BDF934
:10085000020002B07047000080B586B040F24451FB
:10086000C2F2000100200290486008604FF400705E
:1008700001F0A2FF0298ADF81400FFE7BDF81400E4
:100880000B283FDCFFE7BDF8141040F26800C2F20D
:10089000000050F8310090F8240060BBFFE7BDF87D
:1008A000141040F26800C2F2000050F83100C06934
:1008B000B0F5007F1ED9FFE7BDF8141040F26800C4
:1008C000C2F2000050F83100C069B0F5017F11D8C4
:1008D000FFE7BDF8141040F26800C2F2000050F8C3
:1008E0003100D0F8F03240F24451C2F20001082247
:1008F0009847FFE7FFE7FFE7BDF814000130ADF8C8
:100900001400BBE740F2D450C2F2000040F218518C
:10091000C2F2000140F24452C2F20002012301F08F
:1009200087F820B1FFE701208DF817003AE140F287
:100930004451C2F20001002048600860ADF8120086
:10094000FFE7BDF812000B2840DCFFE7BDF81210EE
:1009500040F26800C2F2000050F8310090F8240024
:1009600001282CD1FFE7BDF8121040F26800C2F256
:10097000000050F83100C069B0F5007F1ED9FFE7D4
:10098000BDF8121040F26800C2F2000050F83100C9
:10099000C069B0F5017F11D8FFE7BDF8121040F231
:1009A0006800C2F2000050F83100D0F8F03240F296
:1009B0004451C2F2000108229847FFE7FFE7FFE732
:1009C000BDF812000130ADF81200BAE740F2206025
:1009D000C2F2000040F21851C2F2000140F244524B
:1009E000C2F20002022301F023F820B1FFE7012048
:1009F0008DF81700D6E040F24451C2F20001002009
:100A000001904860086040F2FF1001F0D5FE0198A7
:100A1000ADF81000FFE7BDF810000B283FDCFFE742
:100A2000BDF8101040F26800C2F2000050F831002A
:100A300090F8240060BBFFE7BDF8101040F268009A
:100A4000C2F2000050F83100C069B0F5017F1ED934
:100A5000FFE7BDF8101040F26800C2F2000050F845
:100A60003100C069B0F5027F11D8FFE7BDF8101062
:100A700040F26800C2F2000050F83100D0F8F032C5
:100A800040F24451C2F2000108229847FFE7FFE715
:100A9000FFE7BDF810000130ADF81000BBE740F2F1
:100AA000D450C2F2000040F21851C2F2000140F2EC
:100AB0004452C2F20002012300F0BAFF20B1FFE766
:100AC00001208DF817006DE040F24451C2F20001A0
:100AD000002048600860ADF80E00FFE7BDF80E008A
:100AE0000B2840DCFFE7BDF80E1040F26800C2F2B0
:100AF000000050F8310090F8240001282CD1FFE7C5
:100B0000BDF80E1040F26800C2F2000050F831004B
:100B1000C069B0F5017F1ED9FFE7BDF80E1040F2A5
:100B20006800C2F2000050F83100C069B0F5027FE1
:100B300011D8FFE7BDF80E1040F26800C2F20000C5
:100B400050F83100D0F8F03240F24451C2F20001C6
:100B500008229847FFE7FFE7FFE7BDF80E000130E6
:100B6000ADF80E00BAE740F22060C2F2000040F299
:100B70001851C2F2000140F24452C2F200020223B4
:100B800000F056FF20B1FFE701208DF8170009E0C3
:100B900040F24451C2F200010020486008608DF824
:100BA0001700FFE79DF8170006B080BD80B540F242
:100BB0002C70C2F2000001F0C5FE80BD80B540F689
:100BC0000C10C2F2000001F0BDFE80BD80B540F205
:100BD0006C60C2F2000001F0B5FE80BD80B540F649
:100BE0006C10C2F2000001F0ADFE80BD80B540F295
:100BF000CC60C2F2000001F0A5FE80BD80B540F6D9
:100C0000AC00C2F2000001F09DFE80BD80B540F254
:100C10008C70C2F2000001F095FE80BD80B540F6F8
:100C2000CC10C2F2000001F08DFE80BD80B540F214
:100C3000EC70C2F2000001F085FE80BD80B540F688
:100C40002C20C2F2000001F07DFE80BD80B540F690
:100C50004C00C2F2000001F075FE80BDB4B0DDF8BA
:100C6000D0C03290319130922F9300208DF8BB008C
:100C700032988068802808D1FFE732994FF480705D
:100C8000486501208DF8CF0098E3329947F6391076
:100C9000C0F60000C863329947F65D10C0F6000048
:100CA00048643298C06B20B1FFE73298406C38B985
:100CB000FFE732994020486501208DF8CF007DE3A1
:100CC000FFE7329890F83400012804D1FFE70220B2
:100CD0008DF8CF0072E33299012081F83400FFE7EC
:100CE000FFE7329890F83500012840F05283FFE783
:100CF0003299022081F835003299002048653298F7
:100D00000168086840F4802008602F9832990968CB
:100D100008613498329909684860329880684028A0
:100D200009D1FFE730983299096888603198329983
:100D30000968C86008E0319832990968886030987D
:100D400032990968C860FFE73298006846F2594155
:100D5000C4F202018842C0F0BF80FFE73298006809
:100D600046F21001C4F20201884203D1FFE72020BD
:100D70002D90AAE03298006846F21041C4F20201B8
:100D8000884203D1FFE720202C909BE03298006836
:100D900046F27001C4F20201884203D1FFE720202D
:100DA0002B908CE03298006846F27041C4F2020148
:100DB000884203D1FFE720202A907DE03298006826
:100DC00046F22801C4F20201884204D1FFE74FF441
:100DD000006029906DE03298006846F22841C4F224
:100DE0000201884204D1FFE74FF4006028905DE0E3
:100DF0003298006846F28801C4F20201884204D1A8
:100E0000FFE74FF4006027904DE03298006846F20B
:100E10008841C4F20201884204D1FFE74FF4006028
:100E200026903DE03298006846F24001C4F202018B
:100E3000884204D1FFE74FF4001025902DE032984E
:100E4000006846F24041C4F20201884204D1FFE743
:100E50004FF4001024901DE03298006846F2A00183
:100E6000C4F20201884204D1FFE74FF4001023903E
:100E70000DE03298016846F2A042C4F202024FF03F
:100E80000060914208BF4FF400102390FFE72398C1
:100E90002490FFE724982590FFE725982690FFE708
:100EA00026982790FFE727982890FFE72898299011
:100EB000FFE729982A90FFE72A982B90FFE72B98C5
:100EC0002C90FFE72C982D90FFE72D9846F20C41CF
:100ED000C4F20201086055E23298006846F2B90196
:100EE000C4F202018842C0F0C080FFE73298006877
:100EF00046F21001C4F20201884203D1FFE720202C
:100F00002290AAE03298006846F21041C4F2020131
:100F1000884203D1FFE7202021909BE032980068AF
:100F200046F27001C4F20201884203D1FFE720209B
:100F300020908CE03298006846F27041C4F20201C1
:100F4000884203D1FFE720201F907DE0329800689F
:100F500046F22801C4F20201884204D1FFE74FF4AF
:100F600000601E906DE03298006846F22841C4F29D
:100F70000201884204D1FFE74FF400601D905DE05C
:100F80003298006846F28801C4F20201884204D116
:100F9000FFE74FF400601C904DE03298006846F285
:100FA0008841C4F20201884204D1FFE74FF4006097
:100FB0001B903DE03298006846F24001C4F2020105
:100FC000884204D1FFE74FF400101A902DE03298C8
:100FD000006846F24041C4F20201884204D1FFE7B2
:100FE0004FF4001019901DE03298006846F2A001FD
:100FF000C4F20201884204D1FFE74FF400101890B8
:101000000DE03298016846F2A042C4F202024FF0AD
:101010000060914208BF4FF400101890FFE7189845
:101020001990FFE719981A90FFE71A981B90FFE7AD
:101030001B981C90FFE71C981D90FFE71D981E90C1
:10104000FFE71E981F90FFE71F982090FFE720986A
:101050002190FFE721982290FFE7229846F208416D
:10106000C4F20201086017908AE13298006846F2E3
:101070005901C4F202018842C0F0C080FFE73298F3
:10108000006846F21001C4F20201884203D1FFE772
:1010900020201690AAE03298006846F21041C4F26F
:1010A0000201884203D1FFE7202015909BE032988F
:1010B000006846F27001C4F20201884203D1FFE7E2
:1010C000202014908CE03298006846F27041C4F2FF
:1010D0000201884203D1FFE7202013907DE032987F
:1010E000006846F22801C4F20201884204D1FFE7F9
:1010F0004FF4006012906DE03298006846F228418B
:10110000C4F20201884204D1FFE74FF4006011905D
:101110005DE03298006846F28801C4F2020188421C
:1011200004D1FFE74FF4006010904DE03298006862
:1011300046F28841C4F20201884204D1FFE74FF42D
:1011400000600F903DE03298006846F24001C4F222
:101150000201884204D1FFE74FF400100E902DE009
:101160003298006846F24041C4F20201884204D13C
:10117000FFE74FF400100D901DE03298006846F232
:10118000A001C4F20201884204D1FFE74FF400102D
:101190000C900DE03298016846F2A042C4F20202BF
:1011A0004FF00060914208BF4FF400100C90FFE731
:1011B0000C980D90FFE70D980E90FFE70E980F909A
:1011C000FFE70F981090FFE710981190FFE7119834
:1011D0001290FFE712981390FFE713981490FFE71F
:1011E00014981590FFE715981690FFE7169846F2A9
:1011F0000C01C4F2020108600B90BEE03298006856
:1012000046F21001C4F20201884203D1FFE7202018
:101210000A90AAE03298006846F21041C4F2020136
:10122000884203D1FFE7202009909BE032980068B4
:1012300046F27001C4F20201884203D1FFE7202088
:1012400008908CE03298006846F27041C4F20201C6
:10125000884203D1FFE7202007907DE032980068A4
:1012600046F22801C4F20201884204D1FFE74FF49C
:10127000006006906DE03298006846F22841C4F2A2
:101280000201884204D1FFE74FF4006005905DE061
:101290003298006846F28801C4F20201884204D103
:1012A000FFE74FF4006004904DE03298006846F28A
:1012B0008841C4F20201884204D1FFE74FF4006084
:1012C00003903DE03298006846F24001C4F202010A
:1012D000884204D1FFE74FF4001002902DE03298CD
:1012E000006846F24041C4F20201884204D1FFE79F
:1012F0004FF4001001901DE03298006846F2A00102
:10130000C4F20201884204D1FFE74FF400100090BC
:101310000DE03298016846F2A042C4F202024FF09A
:101320000060914208BF4FF400100090FFE7009862
:101330000190FFE701980290FFE702980390FFE712
:1013400003980490FFE704980590FFE7059806903E
:10135000FFE706980790FFE707980890FFE70898CF
:101360000990FFE709980A90FFE70A9846F20801FA
:10137000C4F2020108600B90FFE70B981790FFE79B
:101380001798FFE732980168086840F0010008608C
:1013900009E0FFE73299002081F83400FFE70220DE
:1013A0008DF8BB00FFE7FFE73299002081F8340099
:1013B000FFE79DF8BB008DF8CF00FFE79DF8CF0059
:1013C00034B0704782B001900198007810384AF626
:1013D000AB21CAF6AA21A0FB0110000900900099D8
:1013E0004AF66070C0F60000405C0199C86500983C
:1013F000042807D3FFE701990868042262F3090073
:10140000886506E00199086840F2FF3290438865DC
:10141000FFE70198806D02B07047000086B005902C
:1014200000208DF813000598806A03900598806964
:1014300010BBFFE70398029003281BD80299DFE84E
:1014400001F0020D0218059890F82F00C00720B196
:10145000FFE701208DF81300FFE70CE00598C06A54
:10146000B0F1C07F04D1FFE701208DF81300FFE742
:1014700001E000E0FFE745E005988069B0F5005F16
:1014800025D1FFE70398019003281ED80199DFE8D2
:1014900001F00206021101208DF8130016E00598F4
:1014A00090F82F00C00720B1FFE701208DF813004E
:1014B000FFE70BE00598C06AB0F1C07F04D1FFE7F9
:1014C00001208DF81300FFE700E0FFE719E0039823
:1014D0000090032804D3FFE70098032804D00EE00F
:1014E00001208DF813000BE0059890F82F00C0073D
:1014F00020B1FFE701208DF81300FFE700E0FFE7D0
:10150000FFE7FFE79DF8130006B0704784B0039033
:1015100002910192009303980168086820F48020EA
:10152000086000980399096848600398806840281B
:1015300009D1FFE701980399096888600298039927
:101540000968C86008E002980399096888600198F2
:1015500003990968C860FFE704B0704786B004903B
:1015600003910292019300208DF80300FFE7049895
:1015700090F83400012804D1FFE702208DF817000D
:1015800049E00499012081F83400FFE7FFE704985F
:1015900090F8350001282FD1FFE70499022081F847
:1015A000350004990020486504980168086820F413
:1015B0008020086001980499096848600498806850
:1015C000402809D1FFE702980499096888600398C8
:1015D00004990968C86008E003980499096888605C
:1015E000029804990968C860FFE7049801680868D0
:1015F00040F00100086009E0FFE70499002081F84D
:101600003400FFE702208DF80300FFE79DF8030098
:101610008DF81700FFE79DF8170006B0704700002F
:1016200080B582B00190019800680068C00600286B
:101630000BD5FFE701980068C068C006002804D5F4
:10164000FFE7019808F01AFDFFE702B080BD000037
:101650007047000082B040F2C800C2F20000007D76
:10166000092800F39B80FFE740F2C800C2F20000A7
:1016700001900121A0F874100221A0F87610032136
:10168000A0F878100421A0F87A100521A0F87C10A9
:101690000621A0F87E100721A0F8801040F2011169
:1016A000A0F882104FF48171A0F8841040F2031169
:1016B000A0F886104FF48271A0F8881040F205114E
:1016C000A0F88A104FF48371A0F88C10007D0128D7
:1016D00009D1FFE740F2C801C2F20001B1F882006F
:1016E000A1F88E0059E040F2C800C2F20000007D6F
:1016F000022809D1FFE740F2C801C2F20001B1F8A7
:101700008400A1F88E0047E040F2C800C2F2000059
:10171000007D032809D1FFE740F2C801C2F20001B1
:10172000B1F88600A1F88E0035E040F2C800C2F2A0
:101730000000007D042809D1FFE740F2C801C2F291
:101740000001B1F88800A1F88E0023E040F2C80043
:10175000C2F20000007D052809D1FFE740F2C80170
:10176000C2F20001B1F88A00A1F88E0011E040F247
:10177000C800C2F20000007D062809D1FFE740F250
:10178000C801C2F20001B1F88C00A1F88E00FFE799
:10179000FFE7FFE7FFE7FFE7FFE799E040F2C80058
:1017A000C2F2000000906521A0F874106621A0F834
:1017B00076106721A0F878106821A0F87A106921C6
:1017C000A0F87C106A21A0F87E106B21A0F8801090
:1017D00040F26511A0F882104FF4B371A0F88410A4
:1017E00040F26711A0F886104FF4B471A0F8881089
:1017F00040F26911A0F88A104FF4B571A0F88C106E
:10180000007D652809D1FFE740F2C801C2F200015E
:10181000B1F88200A1F88E0059E040F2C800C2F28F
:101820000000007D662809D1FFE740F2C801C2F23E
:101830000001B1F88400A1F88E0047E040F2C80032
:10184000C2F20000007D672809D1FFE740F2C8011D
:10185000C2F20001B1F88600A1F88E0035E040F236
:10186000C800C2F20000007D682809D1FFE740F2FD
:10187000C801C2F20001B1F88800A1F88E0023E08F
:1018800040F2C800C2F20000007D692809D1FFE7DC
:1018900040F2C801C2F20001B1F88A00A1F88E003E
:1018A00011E040F2C800C2F20000007D6A2809D1B0
:1018B000FFE740F2C801C2F20001B1F88C00A1F8C4
:1018C0008E00FFE7FFE7FFE7FFE7FFE7FFE7FFE740
:1018D00002B0704780B508F06DFB80BD80B508F0A0
:1018E00075FB80BD80B540F26410C2F200008168D3
:1018F000884780BD80B5FEF7E7FEFEF71BFF05F0C9
:101900001FFC05F063FC05F0B5FC05F0E7FC05F0F5
:1019100027FD04F037FC80BD81B0EFF3108072B674
:101920000090FFE7FEE7000084B002900191ADF85F
:101930000220029828B9FFE74FF6FF70ADF80E00BD
:1019400021E0FFE70198411E0191B8B1FFE702983D
:10195000411C029100788DF80100BDF802109DF83D
:1019600001004840C2B24AF6A470C0F6000030F848
:10197000120080EA1120ADF80200E3E7BDF8020092
:10198000ADF80E00FFE7BDF80E0004B07047000090
:1019900082B00190ADF802108DF80120FFE7BDF88C
:1019A0000200411EADF8021098B1FFE79DF801005A
:1019B00001994A1C0192097848408DF800009DF871
:1019C00000104AF66060C0F60000405C8DF801002F
:1019D000E5E79DF8010002B07047000084B0029076
:1019E0000191029890F820008DF803009DF8030003
:1019F000012805D0FFE79DF8030002280AD1FFE780
:101A0000019A0298016848691043486100208DF8E6
:101A10000F0008E00299486A40F4802048620120E3
:101A20008DF80F00FFE79DF80F0004B0704700002D
:101A300088B00690059104920393069890F82000D0
:101A40008DF8070006980068806800900598806807
:101A500008B9FFE700E0FFE79DF80700012806D07E
:101A6000FFE79DF80700022840F08D80FFE79DF812
:101A70000300400700280CD4FFE79DF8030000078F
:101A8000002806D4FFE79DF80300C006002871D5A2
:101A9000FFE70098C0F3016002900298032809D381
:101AA000FFE70699486A40F40000486201208DF87B
:101AB0001F0071E002990120884003990860059891
:101AC000806868B9FFE705980168C06840EA41503E
:101AD00006990968029A01EB0211C1F880010EE033
:101AE00005994A688868C96840EAC20008430699AF
:101AF0000968029A01EB0211C1F88001FFE705981D
:101B0000006906990968029A01EB0211C1F8840183
:101B10000598007D01280CD1FFE70698006802991E
:101B200000EB0111D1F8840140F48070C1F8840108
:101B3000FFE70498406806990968029A01EB0211D0
:101B4000C1F88C010498006806990968029A01EBB3
:101B50000211C1F8880106980068029900EB011192
:101B6000D1F8800140F00100C1F8800100208DF81B
:101B70001F0011E00699486A40F4001048620120F5
:101B80008DF81F0008E00699486A40F480204862FA
:101B900001208DF81F00FFE79DF81F0008B0704777
:101BA00086B004900391049800680190049890F81E
:101BB00020008DF803009DF80300012806D0FFE700
:101BC0009DF80300022840F0B080FFE746F2004095
:101BD000C4F2000001900199D1F8000240F0010028
:101BE000C1F800020199D1F8000220F47C50C1F83C
:101BF00000020398426A0199D1F8000240EA0220EB
:101C0000C1F800020398406900F01F0101208840DC
:101C10000290029A0199D1F81C029043C1F81C026B
:101C20000398C069F0B9FFE7029A0199D1F80C0254
:101C30009043C1F80C02039A9088D168526940EA37
:101C40000140019901EBC201C1F84002039A1088DA
:101C50009168526940EA0140019901EBC201C1F863
:101C60004402FFE70398C06901281ED1FFE7029AEA
:101C70000199D1F80C021043C1F80C02039A908824
:101C80001168526940EA0140019901EBC201C1F8B3
:101C90004002039A90899168526940EA0140019993
:101CA00001EBC201C1F84402FFE70398806940B923
:101CB000FFE7029A0199D1F804029043C1F80402A7
:101CC00007E0029A0199D1F804021043C1F8040216
:101CD000FFE70398006940B9FFE7029A0199D1F83C
:101CE00014029043C1F8140207E0029A0199D1F856
:101CF00014021043C1F81402FFE70398006A012898
:101D000008D1FFE7029A0199D1F81C021043C1F8EB
:101D10001C02FFE70199D1F8000220F00100C1F890
:101D2000000200208DF8170008E00499486A40F48A
:101D30008020486201208DF81700FFE79DF817000A
:101D400006B0704781B0009001B0704786B0049033
:101D5000039102920193049890F820008DF80300FB
:101D60009DF80300012806D0FFE79DF80300022834
:101D700040F0D780FFE7039880B9FFE70498006838
:101D8000C068800748B9FFE70499486A40F400102A
:101D9000486201208DF81700CCE00FE0049800683D
:101DA0000069800748B9FFE70499486A40F40010C9
:101DB000486201208DF81700BCE0FFE70498006836
:101DC000039900EB0110D0F8B00100F00400029973
:101DD00088600298806858B9FFE704980068039902
:101DE00000EB0110D0F8B001400D029908600AE044
:101DF00004980068039900EB0110D0F8B001C00806
:101E000002994860FFE704980068039900EB01100D
:101E1000D0F8B00100F002000299C8600498006890
:101E2000039900EB0110D0F8B40100F00F00029903
:101E3000086104980068039900EB0110D0F8B40120
:101E400080B2000A0299886104980068039900EB47
:101E50000110D0F8B401000C0299486104980068A0
:101E6000039900EB0110D0F8B801019908700498AB
:101E70000068039900EB0110D0F8B801000A01993D
:101E8000487004980068039900EB0110D0F8B8017D
:101E9000000C0199887004980068039900EB011008
:101EA000D0F8B801000E0199C87004980068039931
:101EB00000EB0110D0F8BC0101990871049800688A
:101EC000039900EB0110D0F8BC01000A0199487198
:101ED00004980068039900EB0110D0F8BC01000CD5
:101EE0000199887104980068039900EB0110D0F8FB
:101EF000BC01000E0199C871039838B9FFE7049836
:101F00000168C86840F02000C86006E004980168D5
:101F1000086940F020000861FFE700208DF81700F5
:101F200008E00499486A40F48020486201208DF856
:101F30001700FFE79DF8170006B0704780B58AB01C
:101F40000990002008900998006840690790099856
:101F500000684068069009980068806805900998B4
:101F60000068C068049009980068006903900998A7
:101F70000068806902909DF81C00C007002800F0EE
:101F80009480FFE79DF81400C00758B3FFE7099855
:101F90000168012088609DF814008007002804D59E
:101FA000FFE7099800F01EFC1BE09DF814004007B5
:101FB000002805D5FFE7089840F4006008900FE07E
:101FC0009DF814000007002805D5FFE7089840F4A5
:101FD0008050089003E0099800F000FCFFE7FFE75D
:101FE000FFE7FFE79DF81500C00760B3FFE709981A
:101FF00001684FF4807088609DF815008007002804
:1020000004D5FFE7099800F0F5FB1BE09DF81500EB
:102010004007002805D5FFE7089840F400500890D5
:102020000FE09DF815000007002805D5FFE7089888
:1020300040F48040089003E0099800F0D7FBFFE7E8
:10204000FFE7FFE7FFE79DF81600C00760B3FFE773
:10205000099801684FF4803088609DF81600800769
:10206000002804D5FFE7099800F0CCFB1BE09DF8A1
:1020700016004007002805D5FFE7089840F4004007
:1020800008900FE09DF816000007002805D5FFE72F
:10209000089840F48030089003E0099800F0AEFB07
:1020A000FFE7FFE7FFE7FFE7FFE79DF81C000007FA
:1020B000002810D5FFE79DF81000C006002809D5BC
:1020C000FFE7089840F40070089009980168102014
:1020D000C860FFE7FFE79DF81C00400700280FD508
:1020E000FFE79DF810000007002808D5FFE70998D2
:1020F00001680820C860099800F0CCFAFFE7FFE704
:102100009DF81C00800700280BD5FFE709980068A0
:10211000C068800720B1FFE7099800F0BFFAFFE729
:10212000FFE79DF81C004006002810D5FFE79DF84A
:102130000C00C006002809D5FFE7089840F480602D
:1021400008900998016810200861FFE7FFE79DF8F3
:102150001C00800600280FD5FFE79DF80C00000743
:10216000002808D5FFE70998016808200861099848
:1021700000F0D0FAFFE7FFE79DF81C00C00600283A
:102180000BD5FFE7099800680069800720B1FFE7D9
:10219000099800F0C3FAFFE7FFE79DF81E008007EB
:1021A00000280FD5FFE79DF81800C006002808D5C5
:1021B000FFE70998016810204860099800F0B2FA1A
:1021C000FFE7FFE79DF81E00C00778B1FFE79DF825
:1021D00018000007002808D5FFE7099801680820C3
:1021E0004860099800F012FBFFE7FFE79DF81D002B
:1021F0000006002840F18D80FFE79DF81800400799
:10220000002840F18180FFE79DF81D00C00750B114
:10221000FFE79DF80800C00728B1FFE7089840F0E5
:1022200001000890FFE79DF81D00800700280BD5EE
:10223000FFE79DF808008007002805D5FFE708980C
:1022400040F002000890FFE79DF81D0040070028BD
:102250000BD5FFE79DF808004007002805D5FFE7EC
:10226000089840F004000890FFE79DF81D00000763
:10227000002848D5FFE79DF8080010F0700F42D005
:10228000FFE7029800F0700001460191102814D079
:10229000FFE70198202815D0FFE70198302816D0D5
:1022A000FFE70198402817D0FFE70198502818D081
:1022B000FFE70198602819D01DE0089840F0080059
:1022C000089019E0089840F01000089014E0089871
:1022D00040F0200008900FE0089840F0400008907F
:1022E0000AE0089840F08000089005E0089840F463
:1022F0008070089000E0FFE709980168886920F085
:1023000070008861FFE7FFE70998016804204860D2
:10231000FFE7089848B1FFE7089A0999486A10430F
:1023200048620998FFF70EFDFFE70AB080BD000084
:1023300080B584B00290029820B9FFE701208DF8A3
:102340000F00E0E0029890F8200020B9FFE7029823
:1023500000F0DEF8FFE702980168086840F001002D
:10236000086000F08DFF0190FFE702980068406868
:10237000C007A8B9FFE700F083FF0199401A0B28B6
:102380000DD3FFE70299486A40F400304862029991
:10239000052081F8200001208DF80F00B3E0E4E76C
:1023A00002980168086820F00200086000F068FFE9
:1023B0000190FFE70298006840688007002815D563
:1023C000FFE700F05DFF0199401A0B280DD3FFE7EE
:1023D0000299486A40F4003048620299052081F869
:1023E000200001208DF80F008DE0E3E70298007EC9
:1023F000012807D1FFE702980168086840F08000D3
:10240000086006E002980168086820F08000086013
:10241000FFE70298407E012807D1FFE70298016894
:10242000086840F04000086006E00298016808680B
:1024300020F040000860FFE70298807E012807D165
:10244000FFE702980168086840F02000086006E095
:1024500002980168086820F020000860FFE70298F1
:10246000C07E012807D1FFE702980168086820F0C4
:102470001000086006E002980168086840F010004B
:102480000860FFE70298007F012807D1FFE7029864
:102490000168086840F00800086006E002980168DA
:1024A000086820F008000860FFE70298407F0128D4
:1024B00007D1FFE702980168086840F0040008604F
:1024C00006E002980168086820F004000860FFE751
:1024D000029B19685A689868D3F80CC040EA0C004F
:1024E000D3F810C040EA0C005B691843013A10436E
:1024F000C861029900204862029A012182F82010E6
:102500008DF80F00FFE79DF80F0004B080BD0000BC
:1025100080B590B00F9000200E900D900C900B9015
:102520000A900F98006846F20041C4F20001884208
:1025300049D1FFE740F23450C2F200000168013196
:1025400001600068012812D1FFE7FFE70020099031
:1025500043F64000C4F20200016841F000710160DE
:10256000006800F0007009900998FFE7FFE7FFE7B7
:102570000020089043F63000C4F20200016841F0E8
:1025800008010160006800F0080008900898FFE763
:1025900003200A9002210B91002103910C910D90D0
:1025A00009200E9040F60040C4F202000AA900F093
:1025B00073FC039A14200490052100F047FF04984F
:1025C00000F03AFF64E00F98006846F60001C4F29C
:1025D000000188425BD1FFE7FFE70020079043F648
:1025E0004000C4F20200016841F0806101600068AF
:1025F00000F0806007900798FFE740F23450C2F285
:1026000000000168013101600068012812D1FFE774
:10261000FFE70020069043F64000C4F20200016884
:1026200041F000710160006800F0007006900698AB
:10263000FFE7FFE7FFE70020059043F63000C4F214
:102640000200016841F002010160006800F0020030
:1026500005900598FFE760200A9002200B9000206B
:1026600001900C9003200D9009200E9040F2004044
:10267000C4F202000AA900F00FFC019A4020029067
:10268000052100F0E3FE029800F0D6FEFFE7FFE729
:1026900010B080BD81B0009001B0704780B586B0A9
:1026A0000590059840F2D451C2F20001884212D13F
:1026B000FFE7059840F2FC52C2F20002049202F1D8
:1026C0001C0303930021FFF741FB03990498006862
:1026D000FEF712F81BE0059840F22061C2F20001FB
:1026E000884212D1FFE7059840F24862C2F2000228
:1026F000029202F11C0301930021FFF727FB0199CD
:1027000002980068FEF72EF800E000E0FFE706B050
:1027100080BD000081B0009001B0704781B0009092
:1027200001B0704781B0009001B0704780B584B0AF
:102730000290029890F8200001282FD1FFE702991B
:10274000022081F8200002980168086820F001004A
:10275000086000F095FD0190FFE70298006840686E
:10276000C007A8B1FFE700F08BFD0199401A0B28C4
:102770000DD3FFE70299486A40F40030486202999D
:10278000052081F8200001208DF80F000FE0E4E71C
:102790000299002048628DF80F0008E00299486A0B
:1027A00040F40020486201208DF80F00FFE79DF8FB
:1027B0000F0004B080BD000081B0ADF80200BDF88C
:1027C000020040F21851C2F2000108600020486087
:1027D00008220A618860C86001B0704781B000902B
:1027E00001B0704781B0009001B0704781B0009097
:1027F00001B0704781B0009001B0704781B0009087
:1028000001B0704781B0009001B0704781B0009076
:1028100001B0704780B584B002900298806D01903D
:1028200000F02EFD0090029890F8350002280DD09F
:10283000FFE7029980204865FFE70299002081F8B0
:102840003400FFE701208DF80F0055E00298016881
:10285000086820F01600086002980168486920F0B6
:10286000800048610298006C20B9FFE70298806CF4
:1028700038B1FFE702980168086820F00800086096
:10288000FFE702980168086820F001000860FFE790
:10289000029800680068C007C8B1FFE700F0F0FCCC
:1028A0000099401A062811D3FFE7029920204865B5
:1028B0000299032081F83500FFE70299002081F892
:1028C0003400FFE703208DF80F0015E0E0E70298E1
:1028D000C16D3F208840019988600299012081F8EC
:1028E0003500FFE70299002081F83400FFE7FFE799
:1028F00000208DF80F00FFE79DF80F0004B080BDA9
:1029000082B00090009890F83500022807D0FFE7C9
:1029100000998020486501208DF807000EE000999D
:10292000052081F8350000980168086820F0010052
:102930000860FFE700208DF80700FFE79DF807001B
:1029400002B0704780B586B005900020039040F239
:102950000400C2F20000006848F2B511C1F64E3121
:10296000A0FB0110800A02900598806D01900198EB
:102970000068049004980599C96DC84000070028B4
:102980001AD5FFE70598006800684007002812D5AF
:10299000FFE705980168086820F0040008600598C2
:1029A000C16D08208840019988600599486D40F004
:1029B00001004865FFE7FFE704980599C96DC84025
:1029C000C007A0B1FFE7059800684069000600282D
:1029D0000CD5FFE70598C16D0120884001998860FA
:1029E0000599486D40F002004865FFE7FFE704984D
:1029F0000599C96DC8404007002814D5FFE7059820
:102A000000680068800700280CD5FFE70598C16DB5
:102A100004208840019988600599486D40F00400C1
:102A20004865FFE7FFE704980599C96DC840C006EF
:102A3000002847D5FFE705980068006800070028D0
:102A40003FD5FFE70598C16D102088400199886047
:102A5000059800680068400300281AD5FFE705982C
:102A6000006800680003002809D4FFE70598006C9F
:102A700020B1FFE70598016C8847FFE708E005985B
:102A8000806C20B1FFE70598816C8847FFE7FFE77E
:102A900016E0059800680068C005002807D4FFE725
:102AA00005980168086820F008000860FFE70598AD
:102AB000006C20B1FFE70598016C8847FFE7FFE74E
:102AC000FFE7FFE704980599C96DC8408006002814
:102AD00040F18D80FFE7059800680068C006002877
:102AE00040F18480FFE70598C16D2020884001995E
:102AF0008860059890F83500052834D1FFE70598DF
:102B00000168086820F016000860059801684869A7
:102B100020F0800048610598006C20B9FFE7059817
:102B2000806C38B1FFE705980168086820F008005C
:102B30000860FFE70598C16D3F20884001998860D3
:102B40000599012081F83500FFE70599002081F8FB
:102B50003400FFE70598006D20B1FFE70598016D8F
:102B60008847FFE77BE0059800680068400300287D
:102B70001AD5FFE70598006800680003002809D40B
:102B8000FFE70598406C20B1FFE70598416C884746
:102B9000FFE708E00598C06B20B1FFE70598C16B1F
:102BA0008847FFE7FFE720E0059800680068C00558
:102BB000002811D4FFE705980168086820F010008C
:102BC00008600599012081F83500FFE7059900208C
:102BD00081F83400FFE7FFE70598C06B20B1FFE7FD
:102BE0000598C16B8847FFE7FFE7FFE7FFE7059818
:102BF000406DA0B3FFE70598406DC00730B3FFE715
:102C00000599052081F8350005980168086820F0CD
:102C100001000860FFE703980130039002998842A1
:102C200001D9FFE707E0FFE7059800680068C007E3
:102C30000028F0D1FFE70599012081F83500FFE772
:102C40000599002081F83400FFE7FFE70598C06C84
:102C500020B1FFE70598C16C8847FFE7FFE706B0A2
:102C600080BD000080B586B004900020039000F085
:102C700007FB0290049820B9FFE701208DF81700A8
:102C8000A3E00498406A08B1FFE7FFE70499022037
:102C900081F83500FFE70499002081F83400FFE750
:102CA00004980168086820F001000860FFE70498B4
:102CB00000680068C00790B1FFE700F0E1FA0299F0
:102CC000401A06280AD3FFE7049920204865049992
:102CD000032081F835008DF8170076E0E7E70498C7
:102CE000006800680390039848F23F01CFF210019A
:102CF00008400390049900914868D1F808C0CB6857
:102D00000A6940EA0C00184310434A6910438A6973
:102D10001043CA691043096A0143039808430390AA
:102D20000498406A042808D1FFE70499C86A096B2F
:102D30000143039808430390FFE703980499096847
:102D400008600498006840690390039820F0070029
:102D500003900498416A0398084303900498406ADA
:102D600004281AD1FFE70498816A03980843039066
:102D70000498C06A80B1FFE70498FEF74FFB50B19A
:102D8000FFE70499402048650499012081F8350047
:102D90008DF8170019E0FFE7FFE703980499096829
:102DA00048610498FEF70EFB01900498C16D3F2026
:102DB000884001998860049900204865049A01219F
:102DC00082F835108DF81700FFE79DF8170006B060
:102DD00080BD000080B588B00690059104920393F1
:102DE00000208DF80B000698806D0190FFE7069893
:102DF00090F83400012804D1FFE702208DF81F006D
:102E000045E00699012081F83400FFE7FFE70698C6
:102E100090F8350001282BD1FFE70699022081F8B0
:102E2000350006990020486506980599049A039B89
:102E3000FEF76CFB0698C16D3F20884001998860C1
:102E400006980168086840F0160008600698006C53
:102E500038B1FFE706980168086840F0080008608C
:102E6000FFE706980168086840F00100086009E083
:102E7000FFE70699002081F83400FFE702208DF873
:102E80000B00FFE79DF80B008DF81F00FFE79DF892
:102E90001F0008B080BD00008EB00D900C91002086
:102EA0000A90099008900B90FFE70B980F2800F20A
:102EB000CC81FFE70B99012088400A900C980068AC
:102EC0000A990840099009980A99884240F0B88107
:102ED000FFE70C98406800F00300012807D0FFE7E7
:102EE0000C98406800F0030002282FD1FFE70D98EE
:102EF000806808900B984100032000FA01F10898BF
:102F0000884308900C98C0680B99490000FA01F1B9
:102F100008980843089008980D9988600D984068B3
:102F200008900B99012000FA01F108988843089055
:102F30000C984068C0F300100B9900FA01F1089852
:102F40000843089008980D994860FFE70C9840687E
:102F500000F00300032818D0FFE70D98C068089020
:102F60000B984100032000FA01F10898884308906B
:102F70000C9880680B99490000FA01F10898084301
:102F8000089008980D99C860FFE70C98406800F019
:102F90000300022826D1FFE70D980B996FF003027A
:102FA00002EA51010844006A08900B9800F00700FB
:102FB00081000F2000FA01F10898884308900C98CE
:102FC00000690B9901F00701890000FA01F10898E6
:102FD0000843089008980D990B9B02EA530211448C
:102FE0000862FFE70D98006808900B9841000320E5
:102FF00000FA01F10898884308900C98406800F0A6
:1030000003000B99490000FA01F108980843089061
:1030100008980D9908600C9880798007002800F0C6
:103020000E81FFE7FFE70020079043F64400C4F25B
:103030000200016841F480410160006800F48040B2
:1030400007900798FFE70B9820F0030043F608016C
:10305000C4F20101405808900B9800F00300810071
:103060000F2000FA01F10898884308900D9800217C
:10307000C4F20201884203D1FFE7002006905EE01F
:103080000D9840F20041C4F20201884203D1FFE7EB
:103090000120059050E00D9840F60001C4F20201B5
:1030A000884203D1FFE70220049042E00D9840F6E9
:1030B0000041C4F20201884203D1FFE703200390DC
:1030C00034E00D9841F20001C4F20201884203D1BC
:1030D000FFE70420029026E00D9841F20041C4F27F
:1030E0000201884203D1FFE70520019018E00D9806
:1030F00041F60001C4F20201884203D1FFE7062035
:1031000000900AE00D9941F60042C4F20202082044
:10311000914208BF07200090FFE700980190FFE769
:1031200001980290FFE702980390FFE7039804904C
:10313000FFE704980590FFE705980690FFE70698DB
:10314000C0B20B9901F00301890000FA01F108985F
:103150000843089008980B9921F0030143F60802F0
:10316000C4F20102885043F60840C4F2010000682E
:10317000089009990898884308900C988079C006AF
:10318000002805D5FFE70999089808430890FFE74C
:10319000089843F60841C4F20101086043F60C4068
:1031A000C4F20100006808900999089888430890C3
:1031B0000C9880798006002805D5FFE709990898C2
:1031C00008430890FFE7089843F60C41C4F2010158
:1031D000086043F60440C4F20100006808900999B1
:1031E0000898884308900C9880798007002805D5B6
:1031F000FFE70999089808430890FFE7089843F605
:103200000441C4F20101086043F60040C4F2010029
:103210000068089009990898884308900C9880796C
:10322000C00728B1FFE70999089808430890FFE70D
:10323000089843F60041C4F201010860FFE7FFE788
:10324000FFE70B9801300B902FE60EB0704700009F
:1032500082B00190ADF802108DF801209DF80100B8
:1032600028B1FFE7BDF802000199886105E0BDF8CB
:103270000200000401998861FFE702B07047000076
:1032800044F62070C2F200000068704781B00090E0
:10329000009801684AF6AA200860002001B0704733
:1032A00040F28840C2F20000027844F62071C2F277
:1032B00000010868104408607047000080B543F6BC
:1032C0000041C4F20201086840F400700860086818
:1032D00040F480600860086840F480700860032053
:1032E00000F0CEF80F2000F005F800F079F800208B
:1032F00080BD000080B58CB00B900020049003903E
:10330000FFE70020009043F64000C4F2020001688D
:1033100041F001010160006800F001000090009898
:10332000FFE706A802A900F0E7F9099804900498BD
:1033300020B9FFE700F010FA059004E000F00CFA65
:1033400040000590FFE705984DF68361C4F21B31FC
:10335000A0FB01014FF0FF3000EB9140039040F6DD
:103360003830C2F200004FF08041016040F2E73196
:10337000C16003994160002101618160816100F0B9
:10338000B5FE8DF807009DF8070028BBFFE740F663
:103390003830C2F2000000F017FF8DF807009DF8EA
:1033A0000700C0B9FFE71C2000F046F80B980F2873
:1033B0000CD8FFE70B991C20002200F047F80B986F
:1033C00040F28C41C2F20001086003E001208DF858
:1033D0000700FFE7FFE7FFE79DF807000CB080BD9F
:1033E00080B582B0FFE70020019043F64400C4F2AC
:1033F0000200016841F480410160006800F48040EF
:1034000001900198FFE7FFE70020009043F640009D
:10341000C4F20200016841F080510160006800F0D0
:10342000805000900098FFE76FF001000F2100220C
:1034300000F00CF802B080BD80B582B08DF80700B6
:103440009DF9070004F056F802B080BD80B586B043
:103450008DF81700049103920020029004F062F8A6
:1034600002909DF91700019002980499039A02F0C6
:1034700053FE0146019804F05DF806B080BD0000DF
:1034800080B582B00190019804F076F802B080BD5A
:1034900004F090F880B584B002900191029820B9B0
:1034A000FFE701208DF80F0021E1019843F600416C
:1034B000C4F20201096801F00701884212D9FFE74E
:1034C000019943F60040C4F202000170006800F068
:1034D00007000199884204D0FFE701208DF80F0012
:1034E00005E1FFE702980078800700282AD5FFE76A
:1034F000029800784007002809D5FFE743F6080145
:10350000C4F20201086840F4E0500860FFE7029846
:1035100000780007002809D5FFE743F60801C4F248
:103520000201086840F460400860FFE743F60801C4
:10353000C4F20201086820F0F000029A9268104379
:103540000860FFE702980078C00700286ED0FFE708
:1035500002984068012811D1FFE743F60000C4F249
:103560000200006800F400310020B0EB514F04D19C
:10357000FFE701208DF80F00B9E02CE002984068C9
:10358000022805D0FFE702984068032811D1FFE721
:1035900043F60000C4F20200006800F00071002051
:1035A000B0EB516F04D1FFE701208DF80F009EE0D2
:1035B00010E043F60000C4F20200006800F00201CF
:1035C0000020B0EB510F04D1FFE701208DF80F0070
:1035D0008DE0FFE7FFE743F60801C4F20201086847
:1035E00020F00300029A526810430860FFF748FE7B
:1035F0000090FFE743F60800C4F20200006800F004
:103600000C0002994968B0EB810F0ED0FFE7FFF77D
:1036100037FE0099401A41F28931884204D3FFE70E
:1036200003208DF80F0062E0E4E7FFE7019843F61E
:103630000041C4F20201096801F00701884212D278
:10364000FFE7019943F60040C4F2020001700068F0
:1036500000F007000199884204D0FFE701208DF8AF
:103660000F0044E0FFE702980078400700280CD5DF
:10367000FFE743F60801C4F20201086820F4E050B5
:10368000029AD26810430860FFE7029800780007AA
:1036900000280DD5FFE743F60801C4F202010868CF
:1036A00020F46040029A126940EAC2000860FFE715
:1036B00000F076F843F60801C4F202010968C9B2C5
:1036C0000A094AF64861C0F60001895CC84040F228
:1036D0000401C2F20001086040F28C40C2F2000016
:1036E0000068FFF707FE00208DF80F00FFE79DF848
:1036F0000F0004B080BD000082B0019000910199DC
:103700000F20086043F60800C4F20200016801F0CF
:103710000301019A5160016801F0F001019A916082
:10372000016801F4E051019AD160006800F4604042
:10373000C0080199086143F60040C4F20200006825
:1037400000F007000099086002B0704740F20400E2
:10375000C2F200000068704780B5FFF7F7FF43F63C
:103760000801C4F202010968C1F382224AF65861D5
:10377000C0F60001895CC84080BD000080B5FFF73D
:10378000E5FF43F60801C4F20201096889B24A0B59
:103790004AF65861C0F60001895CC84080BD00004F
:1037A00080B586B00020059004900390029043F607
:1037B0000800C4F20200006800F00C00014601910C
:1037C00040B1FFE7019804280AD0FFE701980828D4
:1037D0000CD04FE042F20040C0F2F40002904FE003
:1037E00047F64000C0F27D10029049E043F6040025
:1037F000C4F20200016801F03F0105910068400237
:10380000002813D5FFE743F60400C4F20200006865
:10381000C0F3881047F64001C0F27D11A0FB010102
:10382000059A0023FCF740FD049012E043F60400E3
:10383000C4F202000068C0F3881042F20041C0F2F6
:10384000F401A0FB0101059A0023FCF72DFD049073
:10385000FFE743F60400C4F20200006800F44031C0
:10386000022000EBD130039004980399B0FBF1F0F3
:10387000029005E042F20040C0F2F4000290FFE73F
:10388000029806B080BD000080B586B00490049810
:1038900020B9FFE701208DF8170050E30498007865
:1038A000C007002800F0A580FFE743F60800C4F237
:1038B0000200006800F00C00042813D0FFE743F674
:1038C0000800C4F20200006800F00C0008281ED1B5
:1038D000FFE743F60400C4F202000068400200283B
:1038E00015D5FFE743F60000C4F20200006800F4BB
:1038F00000310020B0EB514F08D0FFE7049840683A
:1039000020B9FFE701208DF8170018E370E0FFE70A
:1039100004984068B0F5803F09D1FFE743F6000105
:10392000C4F20201086840F48030086020E0049886
:103930004068B0F5A02F0DD1FFE743F60001C4F2B7
:103940000201086840F480200860086840F4803074
:1039500008600CE043F60001C4F20201086820F49C
:1039600080300860086820F480200860FFE7FFE7E7
:10397000FFE704984068E8B1FFE7FFF781FC039098
:10398000FFE743F60000C4F20200006800F40031D3
:103990000020B0EB514F0CD1FFE7FFF771FC03990A
:1039A000401A652804D3FFE703208DF81700C6E20C
:1039B000E7E71CE0FFF764FC0390FFE743F6000035
:1039C000C4F20200006800F400310020B0EB514F57
:1039D0000CD0FFE7FFF754FC0399401A652804D385
:1039E000FFE703208DF81700A9E2E7E7FFE7FFE70D
:1039F000FFE7049800788007002840F19680FFE7F1
:103A000043F60800C4F20200006810F00C0F13D057
:103A1000FFE743F60800C4F20200006800F00C0063
:103A200008282CD1FFE743F60400C4F20200006826
:103A30004002002823D4FFE743F60000C4F202004E
:103A4000006800F002010020B0EB510F09D0FFE741
:103A50000498C068012804D0FFE701208DF8170002
:103A60006DE243F60001C4F20201086820F0F8009C
:103A7000049A126940EAC2000860FFE754E0049823
:103A8000C06870B3FFE70021C4F24721012008603D
:103A9000FFF7F6FB0390FFE743F60000C4F20200D5
:103AA000006800F002010020B0EB510F0CD1FFE7DD
:103AB000FFF7E6FB0399401A032804D3FFE703202E
:103AC0008DF817003BE2E7E743F60001C4F202017C
:103AD000086820F0F800049A126940EAC200086001
:103AE00021E00021C4F2472100200860FFF7C8FB55
:103AF0000390FFE743F60000C4F20200006800F004
:103B000002010020B0EB510F0CD0FFE7FFF7B8FB2C
:103B10000399401A032804D3FFE703208DF8170008
:103B20000DE2E7E7FFE7FFE7FFE70498007800070B
:103B300000284BD5FFE70498406918B3FFE740F62B
:103B40008061C4F2472101200860FFF799FB0390D0
:103B5000FFE743F67400C4F20200006800F00201BF
:103B60000020B0EB510F0CD1FFE7FFF789FB039961
:103B7000401A032804D3FFE703208DF81700DEE185
:103B8000E7E722E040F68061C4F2472100200860A8
:103B9000FFF776FB0390FFE743F67400C4F20200E0
:103BA000006800F002010020B0EB510F0CD0FFE7DD
:103BB000FFF766FB0399401A032804D3FFE70320AD
:103BC0008DF81700BBE1E7E7FFE7FFE7049800780F
:103BD0004007002840F1CE80FFE700208DF8070065
:103BE00043F64000C4F202000068C000002815D46B
:103BF000FFE7FFE70020009043F64000C4F2020018
:103C0000016841F080510160006800F08050009030
:103C10000098FFE701208DF80700FFE747F200005A
:103C2000C4F200000068C005002822D4FFE747F274
:103C30000001C4F20001086840F480700860FFF7DA
:103C40001FFB0390FFE747F20000C4F2000000688A
:103C5000C00500280CD4FFE7FFF712FB0399401AB8
:103C6000032804D3FFE703208DF8170067E1EAE794
:103C7000FFE7FFE704988068012809D1FFE743F6D2
:103C80007001C4F20201086840F0010008601FE002
:103C90000498806805280DD1FFE743F67001C4F24F
:103CA0000201086840F004000860086840F0010064
:103CB00008600CE043F67001C4F20201086820F0CD
:103CC00001000860086820F004000860FFE7FFE7D3
:103CD000FFE704988068F8B1FFE7FFF7D1FA039097
:103CE000FFE743F67000C4F20200006800F0020132
:103CF0000020B0EB510F0ED1FFE7FFF7C1FA039997
:103D0000401A41F28931884204D3FFE703208DF83D
:103D1000170014E1E5E71EE0FFF7B2FA0390FFE7B2
:103D200043F67000C4F20200006800F002010020B7
:103D3000B0EB510F0ED0FFE7FFF7A2FA0399401A3C
:103D400041F28931884204D3FFE703208DF8170040
:103D5000F5E0E5E7FFE79DF80700012809D1FFE757
:103D600043F64001C4F20201086820F08050086068
:103D7000FFE7FFE704988069002800F0DC80FFE798
:103D800043F60800C4F20200006800F00C000828A6
:103D900000F08580FFE70498806902285CD1FFE786
:103DA0006021C4F2472100200860FFF769FA039000
:103DB000FFE743F60000C4F20200006800F0007163
:103DC0000020B0EB516F0CD0FFE7FFF759FA0399D1
:103DD000401A032804D3FFE703208DF81700AEE054
:103DE000E7E70499C869D1F820C04B6A8A6A40EABB
:103DF0000C0040EA8310D2034FF6FF739A43A2F5FA
:103E000080321043C96A40EA016043F60401C4F2FB
:103E1000020108606021C4F2472101200860FFF719
:103E20002FFA0390FFE743F60000C4F20200006897
:103E300000F000710020B0EB516F0CD1FFE7FFF7ED
:103E40001FFA0399401A032804D3FFE703208DF8D3
:103E5000170074E0E7E721E06021C4F24721002069
:103E60000860FFF70DFA0390FFE743F60000C4F285
:103E70000200006800F000710020B0EB516F0CD020
:103E8000FFE7FFF7FDF90399401A032804D3FFE782
:103E900003208DF8170052E0E7E7FFE74AE00498B7
:103EA0008069012804D1FFE701208DF8170046E062
:103EB00043F60400C4F2020000680290049880698E
:103EC000012831D0FFE7029800F480000499C96905
:103ED000884229D1FFE7029800F03F000499096A5F
:103EE000884221D1FFE7029847F6C0710840049943
:103EF000496AB0EB811F17D1FFE7029800F4403008
:103F00000499896AC9034FF6FF729143A1F5803184
:103F1000884209D1FFE7029800F070600499C96AED
:103F2000B0EB016F04D0FFE701208DF8170006E029
:103F3000FFE7FFE7FFE700208DF81700FFE79DF898
:103F4000170006B080BD000080B584B002900298D2
:103F500020B9FFE701208DF80F0071E00298406A58
:103F600060B9FFE702984068B0F5827F01D1FFE7B2
:103F700003E002990020C861FFE705E002990020F4
:103F8000086102994861FFE702990020886202985F
:103F900090F8510040B9FFE70299002081F85000E5
:103FA000029800F051F8FFE70299022081F85100D1
:103FB00002980168086820F040000860029A0192A7
:103FC00011685068D2F808C0D36800F482700CF40D
:103FD000044C604403F400631844136903F00203C3
:103FE0001844536903F001031844936903F4007300
:103FF0001844D36903F038031844136A03F08003AC
:104000001843926A02F4005210430860029A508BDF
:1040100000F004001168526A02F010021044486077
:1040200002980168C86920F40060C8610299002004
:104030004865029A012182F851108DF80F00FFE7C0
:104040009DF80F0004B080BD80B588B007900020B7
:10405000069005900490039002900798006843F63C
:104060000001C4F20001884235D1FFE7FFE70020DC
:10407000019043F64000C4F20200016841F480411F
:104080000160006800F4804001900198FFE7FFE7BD
:104090000020009043F63000C4F20200016841F0B5
:1040A00002010160006800F0020000900098FFE744
:1040B0004FF46040029002200390002004900320FF
:1040C00005900520069040F20040C4F2020002A9CB
:1040D000FEF7E2FEFFE708B080BD000081B000906F
:1040E00001B0704781B0009001B0704780B582B0D8
:1040F0000090009820B9FFE701208DF807003FE00D
:10410000009890F83D0040B9FFE70099002081F841
:104110003C00009800F038F8FFE70099022081F891
:104120003D00009951F8040B02F074F90099012048
:1041300081F84600FFE70099012081F83E000099D0
:1041400081F83F00009981F84000009981F8410012
:10415000FFE7FFE70099012081F84200009981F80C
:104160004300009981F84400009981F84500FFE779
:104170000099012081F83D0000208DF80700FFE73D
:104180009DF8070002B080BD82B0019001980068E0
:1041900044F60001C4F20101884212D1FFE7FFE7B3
:1041A0000020009043F64400C4F20200016841F48C
:1041B00080210160006800F4802000900098FFE7F3
:1041C000FFE702B07047000083B00190019890F8BB
:1041D0003D00012804D0FFE701208DF80B006AE0C4
:1041E0000199022081F83D0001980168C86840F0FB
:1041F0000100C860019800680021C4F201018842F2
:104200003CD0FFE701980068B0F1804F36D0FFE75F
:104210000198006840F20041C4F2000188422DD0AC
:10422000FFE70198006840F60001C4F200018842EF
:1042300024D0FFE70198006840F60041C4F2000175
:1042400088421BD0FFE70198006840F20041C4F2A9
:104250000101884212D0FFE70198006844F2000192
:10426000C4F20101884209D0FFE70198006841F6D5
:104270000001C4F20001884212D1FFE701980068F2
:10428000806800F0070000900098062807D0FFE73C
:1042900001980168086840F001000860FFE706E047
:1042A00001980168086840F001000860FFE70020FD
:1042B0008DF80B00FFE79DF80B0003B0704700007E
:1042C00081B0009001B0704780B582B00190019834
:1042D0000068006900F002010020B0EB510F28D007
:1042E000FFE701980068C06800F002010020B0EB11
:1042F000510F1DD0FFE7019801686FF002000861BF
:10430000019901200877019800688069800720B131
:10431000FFE70198FFF7D4FF06E0019800F04AF9A3
:10432000019800F03FFAFFE7019900200877FFE7C6
:10433000FFE701980068006900F004010020B0EB7D
:10434000910F29D0FFE701980068C06800F00401D0
:104350000020B0EB910F1ED0FFE7019801686FF0CD
:1043600004000861019902200877019800688069BB
:1043700010F4407F04D0FFE70198FFF7A1FF06E0AB
:10438000019800F017F9019800F00CFAFFE7019985
:1043900000200877FFE7FFE701980068006900F058
:1043A00008010020B0EBD10F28D0FFE7019800688A
:1043B000C06800F008010020B0EBD10F1DD0FFE76E
:1043C000019801686FF008000861019904200877DE
:1043D00001980068C069800720B1FFE70198FFF7E6
:1043E0006FFF06E0019800F0E5F8019800F0DAF9B7
:1043F000FFE7019900200877FFE7FFE701980068D1
:10440000006900F010010020B0EB111F29D0FFE778
:1044100001980068C06800F010010020B0EB111F87
:104420001ED0FFE7019801686FF010000861019944
:104430000820087701980068C06910F4407F04D014
:10444000FFE70198FFF73CFF06E0019800F0B2F8A3
:10445000019800F0A7F9FFE7019900200877FFE72E
:10446000FFE7019800680069C00780B1FFE7019885
:104470000068C068C00748B1FFE7019801686FF0A5
:1044800001000861019800F077FAFFE7FFE7019863
:1044900000680069C1B20020B0EBD11F13D0FFE764
:1044A00001980068C068C1B20020B0EBD11F09D0EC
:1044B000FFE7019801686FF0800008610198FFF73D
:1044C0000DFEFFE7FFE701980068006900F040017A
:1044D0000020B0EB911F14D0FFE701980068C0687E
:1044E00000F040010020B0EB911F09D0FFE70198D8
:1044F00001686FF040000861019800F04BFAFFE797
:10450000FFE701980068006900F020010020B0EB8F
:10451000511F14D0FFE701980068C06800F0200127
:104520000020B0EB511F09D0FFE7019801686FF040
:10453000200008610198FFF7D5FDFFE7FFE702B013
:1045400080BD000080B588B00790002006900590DF
:104550000490039002900798006844F60001C4F2AA
:104560000101884223D1FFE7FFE70020019043F6D5
:104570003000C4F20200016841F0020101600068ED
:1045800000F0020001900198FFE74FF400700290E4
:10459000022003900020049005900320069040F232
:1045A0000040C4F2020002A9FEF776FCFFE708B063
:1045B00080BD000081B0009001B0704780B586B02A
:1045C00004900391029200208DF80700FFE7049801
:1045D00090F83C00012804D1FFE702208DF8170075
:1045E00089E00499012081F83C00FFE7FFE7029889
:1045F00000900C2800F270800099DFE801F0076D50
:104600006D6D206D6D6D3A6D6D6D53000498006891
:10461000039901F0E9FF04980168886940F00800F7
:10462000886104980168886920F004008861039813
:1046300002690498016888691043886150E0049811
:104640000068039902F046F804980168886940F40C
:104650000060886104980168886920F4806088613E
:104660000398026904980168886940EA0220886119
:1046700036E004980068039902F0A6F804980168EF
:10468000C86940F00800C86104980168C86920F052
:104690000400C8610398026904980168C86910435E
:1046A000C8611DE004980068039902F007F90498B6
:1046B0000168C86940F40060C86104980168C8696D
:1046C00020F48060C8610398026904980168C86991
:1046D00040EA0220C86103E001208DF80700FFE7EF
:1046E000FFE70499002081F83C00FFE79DF80700F0
:1046F0008DF81700FFE79DF8170006B080BD000099
:1047000080B582B00090009820B9FFE701208DF8B5
:1047100007003FE0009890F83D0040B9FFE700999E
:10472000002081F83C00009800F038F8FFE700997D
:10473000022081F83D00009951F8040B01F06AFE57
:104740000099012081F84600FFE70099012081F8D7
:104750003E00009981F83F00009981F840000099DF
:1047600081F84100FFE7FFE70099012081F842004E
:10477000009981F84300009981F84400009981F87C
:104780004500FFE70099012081F83D0000208DF8E9
:104790000700FFE79DF8070002B080BD81B00090E0
:1047A00001B0704781B0009001B0704780B58CB007
:1047B0000A900991099828B9FFE70A9890F83E00F5
:1047C00007901CE00998042805D1FFE70A9890F8A3
:1047D0003F00069010E00998082805D1FFE70A98E5
:1047E00090F84000059004E00A9890F84100059088
:1047F000FFE705980690FFE706980790FFE7079800
:10480000012804D0FFE701208DF82F00AFE00998C0
:1048100028B9FFE70A99022081F83E001EE00998B6
:10482000042806D1FFE70A99022081F83F0004908E
:1048300012E00998082806D1FFE70A99022081F8BA
:104840004000039005E00A99022081F8410003909E
:10485000FFE703980490FFE70498FFE70A980068D1
:1048600009990122019201F0A3FE01980A990968B1
:104870000022C4F20102914202900CD0FFE70A9894
:1048800000684FF60041CBF6FE710844B0FA80F0A4
:1048900040090290FFE70298C00738B1FFE70A9885
:1048A0000168486C40F400404864FFE70A980068DB
:1048B0000021C4F2010188423CD0FFE70A98006859
:1048C000B0F1804F36D0FFE70A98006840F200410F
:1048D000C4F2000188422DD0FFE70A98006840F634
:1048E0000001C4F20001884224D0FFE70A98006862
:1048F00040F60041C4F2000188421BD0FFE70A984D
:10490000006840F20041C4F20101884212D0FFE782
:104910000A98006844F20001C4F20101884209D0FB
:10492000FFE70A98006841F60001C4F200018842DE
:1049300012D1FFE70A980068806800F0070008902D
:104940000898062807D0FFE70A980168086840F031
:1049500001000860FFE706E00A980168086840F077
:1049600001000860FFE700208DF82F00FFE79DF8A9
:104970002F000CB080BD000080B582B0019001987E
:104980000068B0F1804F03D1FFE7FEF789FCFFE735
:1049900002B080BD81B0009001B0704782B001903C
:1049A000ADF8021002B0704781B0009001B07047BE
:1049B00080B592B01190119800680068109011981D
:1049C0000068C0680F901198006840690E90002040
:1049D0000D900C90109800F00F000D900D9888B974
:1049E000FFE79DF84000800600280AD5FFE79DF804
:1049F0003C008006002804D5FFE7119802F05CF91E
:104A0000E3E1FFE70D98002800F0C280FFE79DF882
:104A10003800C00738B9FFE7BDF83C0010F4907FBC
:104A200000F0B680FFE79DF84000C00758B1FFE7EF
:104A30009DF83D00C00730B1FFE71199086C40F0C8
:104A400001000864FFE79DF84000400700280BD5EF
:104A5000FFE79DF83800C00730B1FFE71199086CF7
:104A600040F002000864FFE79DF84000800700283E
:104A70000BD5FFE79DF83800C00730B1FFE711996B
:104A8000086C40F004000864FFE79DF84000000750
:104A9000002811D5FFE79DF83C008006002805D4CA
:104AA000FFE79DF83800C00730B1FFE71199086CA7
:104AB00040F008000864FFE71198006C002866D0F9
:104AC000FFE79DF84000800600280AD5FFE79DF823
:104AD0003C008006002804D5FFE7119802F0ECF8AE
:104AE000FFE7119800684069C0F380100C9011989E
:104AF000006C0007002804D4FFE70C9800283ED083
:104B0000FFE7119802F05EF81198006840694006CE
:104B100000282FD5FFE7FFE7FFE71198006850E86E
:104B2000050F20F040000B90FFE70B9911980268E9
:104B300042E805100028F0D1FFE7FFE71198806BED
:104B400098B1FFE71198816B46F69520C0F60000FA
:104B500008651198806BFDF7D3FE28B1FFE7119827
:104B6000806B016D8847FFE703E01198FFF71CFF9A
:104B7000FFE703E01198FFF717FFFFE706E0119842
:104B8000FFF712FF119900200864FFE7FFE71CE11F
:104B90001198006B012840F0F880FFE79DF8400075
:104BA000C006002840F1F180FFE79DF83C00C006F8
:104BB000002840F1EA80FFE7FFE700200A90119803
:104BC000006800680A901198006840680A900A9886
:104BD000FFE7119800684069400600287ED5FFE78E
:104BE0001198806B00684068ADF82600BDF826007B
:104BF000002872D0FFE7BDF826001199898D884200
:104C00006BDAFFE7BDF826001199C8851198806B13
:104C1000C069B0F5807F58D0FFE7FFE7FFE7119844
:104C2000006850E8030F20F480700890FFE70899AF
:104C30001198026842E803100028F0D1FFE7FFE76F
:104C4000FFE7FFE71198006850E8050F20F001002A
:104C50000790FFE707991198026842E805100028BD
:104C6000F0D1FFE7FFE7FFE7FFE71198006850E8A2
:104C7000050F20F040000690FFE7069911980268A2
:104C800042E805100028F0D1FFE7FFE71199202046
:104C900081F83E00119900200863FFE7FFE71198B3
:104CA000006850E8030F20F010000590FFE7059919
:104CB0001198026842E803100028F0D1FFE7FFE7EF
:104CC0001198806BFDF7A6FDFFE71198818DC28DCD
:104CD000891A89B2FFF762FEFFE776E01199888DA5
:104CE000C98D401AADF812001198C08D00284BD024
:104CF000FFE7BDF81200002846D0FFE7FFE7FFE717
:104D00001198006850E8030F20F490700390FFE7BB
:104D100003991198026842E803100028F0D1FFE7D8
:104D2000FFE7FFE7FFE71198006850E8050F20F064
:104D300001000290FFE702991198026842E805100D
:104D40000028F0D1FFE7FFE71199202081F83E000D
:104D5000119900200863FFE7FFE71198006850E809
:104D6000030F20F010000190FFE7019911980268ED
:104D700042E803100028F0D1FFE7FFE71198BDF8E3
:104D80001210FFF70BFEFFE71FE09DF84000000642
:104D900000280AD5FFE79DF83C000006002804D54E
:104DA000FFE7119802F0D8F80FE09DF840004006A8
:104DB00000280AD5FFE79DF83C004006002804D5EE
:104DC000FFE7119801F048FFFFE712B080BD000037
:104DD00080B582B00090009820B9FFE701208DF8DF
:104DE00007003EE00098806908B1FFE700E0FFE7B8
:104DF000009890F83D0040B9FFE70099002081F845
:104E00003C00009800F032F8FFE70099242081F878
:104E10003D0000980168C86820F40050C860009800
:104E200001F0FCFF00980168086920F490400861D7
:104E300000980168486920F02A00486100980168DC
:104E4000C86840F40050C860009900200864009AC7
:104E5000202182F83D10009A82F83E108DF807005C
:104E6000FFE79DF8070002B080BD000080B5AEB03E
:104E70002D9000202C902B902A90299028902D98EE
:104E8000006844F60041C4F20001884240F092807C
:104E9000FFE7FFE70020279043F64000C4F202003E
:104EA000016841F400210160006800F400202790AF
:104EB0002798FFE7FFE70020269043F63000C4F272
:104EC0000200016841F001010160006800F001008A
:104ED00026902698FFE7032028900221299100219F
:104EE00019912A912B9008202C900020C4F20200E6
:104EF00028A9FDF7D1FF199940F26C60C2F20000B9
:104F00001A9046F24002C4F2020202604FF00062C0
:104F100042608160C1604FF48062026141618161E1
:104F20004FF48072C26101624162FDF79BFE18B1CD
:104F3000FFE7FCF7F1FCFFE7FFE72D9840F26C611B
:104F4000C2F2000181632D988863FFE740F2CC60D4
:104F5000C2F20000189046F27001C4F20201016032
:104F60004FF000614160402181600021C1604FF439
:104F70008062026141618161C16101624162FDF74C
:104F800071FE18B1FFE7FCF7C7FCFFE7FFE72D98BC
:104F900040F2CC61C2F2000141632D988863FFE7C3
:104FA0003420179005210022FEF750FA1798FEF7DB
:104FB00043FA13E32D98006845F20001C4F20001A2
:104FC000884240F0BF80FFE7FFE70020259043F6CE
:104FD0004000C4F20200016841F4801101600068E1
:104FE00000F4801025902598FFE7FFE7002024902B
:104FF00043F63000C4F20200016841F00401016090
:10500000006800F0040024902498FFE7FFE70020E8
:10501000239043F63000C4F20200016841F0080119
:105020000160006800F0080023902398FFE74FF428
:1050300080502890022011902990002015902A90ED
:10504000032012902B90082013902C9040F6000023
:10505000C4F2020028A91491FDF71EFFDDF844C038
:10506000129A13981499159B4FF0040ECDF8A0E0F6
:10507000CDF8A4C02A932B922C9040F60040C4F2A5
:105080000200FDF709FF159940F22C70C2F20000F2
:10509000169046F21002C4F2020202604FF0006263
:1050A00042608160C1604FF4806202614161816150
:1050B0004FF48072C26101624162FDF7D3FD18B105
:1050C000FFE7FCF729FCFFE7FFE72D9840F22C7182
:1050D000C2F2000181632D988863FFE740F28C7073
:1050E000C2F20000109046F2B801C4F20201016061
:1050F0004FF000614160402181600021C1604FF4A8
:105100008062026141618161C16101624162FDF7BA
:10511000A9FD18B1FFE7FCF7FFFBFFE7FFE72D98BC
:1051200040F28C71C2F2000141632D988863FFE761
:1051300035200F9005210022FEF788F90F98FEF721
:105140007BF94AE22D98006841F20001C4F20101A6
:10515000884240F09480FFE7FFE70020229043F66A
:105160004400C4F20200016841F0100101600068CF
:1051700000F0100022902298FFE7FFE70020219026
:1051800043F63000C4F20200016841F00101016001
:10519000006800F0010021902198FFE74FF4C06003
:1051A00028900220299000200D902A9003202B9017
:1051B00007202C900020C4F2020028A9FDF76CFE05
:1051C0000D9940F2EC70C2F200000E9046F240429F
:1051D000C4F2020202604FF0006242608160C1606E
:1051E0004FF480620261416181614FF48072C2615B
:1051F00001624162FDF736FD18B1FFE7FCF78CFB59
:10520000FFE7FFE72D9840F2EC71C2F200018163E5
:105210002D988863FFE740F64C00C2F200000C9026
:1052200046F2B841C4F2020101604FF000614160F2
:10523000402181600021C1604FF4806202614161C0
:105240008161C16101624162FDF70CFD18B1FFE7A8
:10525000FCF762FBFFE7FFE72D9840F64C01C2F236
:10526000000141632D988863FFE725200B900521FD
:105270000022FEF7EBF80B98FEF7DEF8ACE12D9874
:10528000006844F20041C4F20001884268D1FFE79F
:10529000FFE70020209043F64000C4F202000168BE
:1052A00041F400310160006800F400302090209843
:1052B000FFE7FFE700201F9043F63000C4F2020032
:1052C000016841F001010160006800F001001F90D9
:1052D0001F98FFE70C2028900220299000200990B9
:1052E0002A9003202B9007202C900020C4F202006B
:1052F00028A9FDF7D1FD099940F6AC00C2F20000E3
:105300000A9046F28802C4F2020202604FF0006284
:1053100042608160C1604FF48062026141618161DD
:105320004FF48072C26101624162FDF79BFC18B1CB
:10533000FFE7FCF7F1FAFFE7FFE72D9840F6AC0135
:10534000C2F2000181632D988863FFE72620089050
:1053500005210022FEF77AF80898FEF76DF83AE189
:105360002D98006844F60001C4F20001884240F024
:105370009380FFE7FFE700201E9043F64000C4F251
:105380000200016841F480210160006800F480207F
:105390001E901E98FFE7FFE700201D9043F63000A7
:1053A000C4F20200016841F002010160006800F0EF
:1053B00002001D901D98FFE74FF4406028900220E6
:1053C0002990002006902A9003202B9007202C90F3
:1053D00040F20040C4F2020028A9FDF75DFD0699E5
:1053E00040F60C10C2F20000079046F22802C4F208
:1053F000020202604FF0006242608160C1604FF4BF
:105400008062026141618161C16101624162FDF7B7
:1054100029FC18B1FFE7FCF77FFAFFE7FFE72D98BB
:1054200040F60C11C2F2000181632D988863FFE7FA
:1054300040F66C10C2F20000059046F25801C4F22A
:10544000020101604FF00061416040218160002154
:10545000C1604FF48062026141618161C16101629A
:105460004162FDF7FFFB18B1FFE7FCF755FAFFE7D4
:10547000FFE72D9840F66C11C2F2000141632D98B0
:105480008863FFE72720049005210022FDF7DEFF57
:105490000498FDF7D1FF9DE02D98006841F200418E
:1054A000C4F20101884240F09480FFE7FFE700204A
:1054B0001C9043F64400C4F20200016841F0200150
:1054C0000160006800F020001C901C98FFE7FFE7D7
:1054D00000201B9043F63000C4F20200016841F046
:1054E00004010160006800F004001B901B98FFE7B6
:1054F000C020289002202990002002902A900320AA
:105500002B9008202C9040F60000C4F2020028A93D
:10551000FDF7C2FC029940F6CC10C2F200000390E5
:1055200046F22842C4F2020202604FF0206242605A
:105530008160C1604FF480620261416181614FF41A
:105540008072C26101624162FDF78CFB18B1FFE716
:10555000FCF7E2F9FFE7FFE72D9840F6CC11C2F225
:10556000000181632D988863FFE740F62C20C2F28A
:105570000000019046F2A041C4F2020101604FF028
:1055800020614160402181600021C1604FF4806250
:10559000026141618161C16101624162FDF762FBAB
:1055A00018B1FFE7FCF7B8F9FFE7FFE72D9840F6E1
:1055B0002C21C2F2000141632D988863FFE7472048
:1055C000009005210022FDF741FF0098FDF734FF10
:1055D000FFE7FFE7FFE7FFE7FFE7FFE72EB080BD4C
:1055E00081B0009001B0704780B586B004900391FF
:1055F000ADF80A20049890F83D00202874D1FFE708
:10560000039820B1FFE7BDF80A0020B9FFE70120A9
:105610008DF817006CE0FFE7049890F83C00012833
:1056200004D1FFE702208DF8170061E00499012002
:1056300081F83C00FFE7FFE7039804990862BDF892
:105640000A0004998884BDF80A000499C884049962
:1056500000200864049A212182F83D1004994A6BC5
:1056600046F63131C0F60001D16304994A6B46F623
:10567000AD31C0F60001116404994A6B46F6B521BC
:10568000C0F60001D1640499496B086503A8019034
:1056900004980268406B019909680432BDF80A3029
:1056A000FDF798FB049801686FF040000860FFE781
:1056B0000499002081F83C00FFE7FFE7FFE704982A
:1056C000006850E8050F40F080000090FFE7009967
:1056D0000498026842E805100028F0D1FFE7FFE7D0
:1056E00000208DF8170003E002208DF81700FFE777
:1056F0009DF8170006B080BD81B0009001B07047E2
:1057000081B0009001B07047FFE7FEE780B58AB036
:1057100005AB0393034603980893079180ED010AB4
:10572000C0ED000A8DF81320089818B9FFE7002093
:10573000099087E00798E0BBFFE70399089891ED8F
:10574000010A03F0CBFA9DF813000146029140B123
:10575000FFE70298012805D0FFE7029802280CD045
:1057600020E01FE0089890ED020ADFED390A02F010
:1057700065FF089880ED020A14E0089890ED020A8F
:10578000DFED330A02F05AFF089880ED020A08980C
:1057900090ED020ADFED2F0A02F050FF089880ED2D
:1057A000020AFFE7089803F09FF80898006A09903A
:1057B00048E00399089891ED010A03F08FFA9DF8EB
:1057C00013000146019140B1FFE70198012805D07F
:1057D000FFE7019802280CD020E01FE0089890ED28
:1057E000020ADFED1B0A02F029FF089880ED020A89
:1057F00014E0089890ED020ADFED150A02F01EFF92
:10580000089880ED020A089890ED020ADFED110A6F
:1058100002F014FF089880ED020AFFE7089803F0F1
:1058200063F803990898006A079A1060079891ED49
:10583000000A03F053FA079803F056F80798006A35
:105840000990FFE7039890ED040A0AB080BD00BFFD
:1058500000FF7F4700FEFF4680B582B040F2D45083
:10586000C2F20000019046F20041C4F20001016062
:105870000321416000228260C2604FF40021016177
:105880004FF4401141610276012141768176C27662
:1058900002774177FCF74CFD18B1FFE7FCF73CF8C5
:1058A000FFE702B080BD000080B582B040F220600A
:1058B000C2F20000019046F60001C4F2000101604E
:1058C0000321416000228260C2604FF40021016127
:1058D0004FF4401141610276012141768176C27612
:1058E00002774177FCF724FD18B1FFE7FCF714F8C5
:1058F000FFE702B080BD000080B590B0FFE7002058
:105900000F9043F63000C4F20200016841F4001128
:105910000160006800F400100F900F98FFE7FFE7A8
:1059200000200E9043F63000C4F20200016841F4FA
:1059300080010160006800F480000E900E98FFE77F
:105940000B20019005210B9100220C92FDF77EFDAA
:105950000198FDF771FD0B990C9A0C200290FDF750
:1059600075FD0298FDF768FD0B990C9A0D200390C8
:10597000FDF76CFD0398FDF75FFD0B990C9A0E2067
:105980000490FDF763FD0498FDF756FD0B990C9A02
:105990000F200590FDF75AFD0598FDF74DFD0B9979
:1059A0000C9A10200690FDF751FD0698FDF744FD76
:1059B0000B990C9A2F200790FDF748FD0798FDF7EB
:1059C0003BFD0B990C9A39200890FDF73FFD089894
:1059D000FDF732FD0B990C9A3A200990FDF736FD40
:1059E0000998FDF729FD0B990C9A45200A90FDF7BF
:1059F0002DFD0A98FDF720FD0B990C9A46200D907D
:105A0000FDF724FD0D98FDF717FD10B080BD0000D7
:105A1000B0B59EB04AF62C60C0F60000016842683E
:105A20008368D0F80CC0D0F810E044691C94CDF81D
:105A30006CE0CDF868C019931892179180691D9099
:105A400017A80021019103F03BFA019940F2CC52D2
:105A5000C2F2000210604AF6D850C0F60000026898
:105A60004368D0F808C0D0F80CE004694569159582
:105A70001494CDF84CE0CDF848C011931092806991
:105A8000169010A803F01CFA019940F23052C2F2AD
:105A9000000210604AF6F450C0F600000268436845
:105AA000D0F808C0D0F80CE0046945690E950D9453
:105AB000CDF830E0CDF82CC00A93099280690F90A0
:105AC00009A803F0FDF9019940F23852C2F2000230
:105AD00010604AF61060C0F6000002684368D0F813
